:020000040800F2
:1000000000070020810200080F2100083D1B0008A6
:100010000D2100082D060008A5240008000000009E
:10002000000000000000000000000000272400087D
:100030002F060008000000001121000829240008F4
:100040009B0200089B0200089B0200089B0200081C
:100050009B0200089B0200089B0200089B0200080C
:100060009B0200089B0200089B0200089B020008FC
:100070009B0200089B0200089B0200089B020008EC
:100080009B020008000000009B0200089B02000881
:100090009B0200089B0200089B0200089B020008CC
:1000A0009B0200089B0200089B0200089B020008BC
:1000B0009B0200089B0200089B0200089B020008AC
:1000C0009B0200089B0200089B0200089B0200089C
:1000D0009B0200089B0200089B0200089B0200088C
:1000E0009B0200089B0200089B0200089B0200087C
:1000F0009B0200089B0200089B0200080000000011
:10010000000000009B020008000000009B020008A5
:100110009B020008000000009B0200089B020008F0
:100120009B0200089B0200089B0200089B0200083B
:100130009B02000800000000000000009B02000875
:100140009B0200089B020008000000000000000065
:10015000000000000000000000000000000000009F
:100160000000000000000000000000009B020008EA
:100170009B020008000000000000000000000000DA
:10018000000000009B0200080000000000000000CA
:10019000000000000000000000000000000000005F
:1001A00000000000000000009B0200089B02000805
:1001B0009B0200089B0200089B0200080000000050
:1001C000000000009B02000800000000000000008A
:1001D0009B0200089B02000800F002F800F041F8C2
:1001E0000AA090E8000C82448344AAF10107DA4592
:1001F00001D100F036F8AFF2090EBAE80F0013F0A3
:10020000010F18BFFB1A43F001031847A83500007F
:10021000C8350000103A24BF78C878C1FAD8520710
:1002200024BF30C830C144BF04680C607047000070
:100230000023002400250026103A28BF78C1FBD8EF
:10024000520728BF30C148BF0B607047642900F0D7
:100250007F80002070471FB502F0B6F91FBD10B5B2
:1002600010BD00F052F91146FFF7F5FF02F088F9D2
:1002700000F070F903B4FFF7F2FF03BC00F078F967
:100280000948804709480047FEE7FEE7FEE7FEE72A
:10029000FEE7FEE7FEE7FEE7FEE7FEE70448054966
:1002A000054A064B7047000095240008D901000854
:1002B00000010020000700200003002000030020B0
:1002C0000FB41CB5074B06AA7B44694600900598FD
:1002D00000F003F90020694600F012F91CBC5DF83B
:1002E00014FB0000350200002DE9F0410E460446E3
:1002F000002020622046E168884730B3252805D0D9
:10030000D4E901219047206A401CF2E7E1682046C9
:1003100000278847050018D0A5F14100192802D808
:1003200020354FF400673246294620462760FFF704
:100330008DFF40B1012804D0F61D26F007060836CF
:10034000D8E7361DD6E72846DAE7206ABDE8F0810F
:100350002DE9F0410646002410687529314616A59E
:1003600010D0AFF30080002802DA404213A507E066
:1003700031688A0701D512A502E0490704D511A505
:10038000012401E0AFF3008000210A2206F12407D6
:1003900009E0B0FBF2FCB0FBF2F302FB1C003030D2
:1003A00078541846491C0028F3D123462A46304683
:1003B000BDE8F04100F032B8000000002D00000060
:1003C0002B000000200000004FF0000200B5134693
:1003D00094469646203922BFA0E80C50A0E80C5065
:1003E000B1F12001BFF4F7AF090728BFA0E80C5016
:1003F00048BF0CC05DF804EB890028BF40F8042B0F
:1004000008BF704748BF20F8022B11F0804F18BF7B
:1004100000F8012B70477047704770472DE9F0478F
:100420000D4699469246044600F124080168880664
:1004300004D5E06921F01001216000E00120A8420C
:1004400001DD471B00E00027A1697A1902EB0900D2
:10045000081AA0612078C00602D42046AFF30080BD
:10046000002608E0D4E901211AF806009047206A26
:10047000401C761C20624E45F4DB2078C0060AD56D
:100480002046AFF3008006E0D4E9012130209047F8
:10049000206A401C2062381EA7F10107F4DC07E047
:1004A000D4E9012118F805009047206A401C206219
:1004B000281EA5F10105F3DC2046AFF3008020786B
:1004C000000602D50220BDE8F0870120FBE700000E
:1004D00001694A1C02610878704700B58FB0CDE908
:1004E00001310021059105497944CDE903101146F8
:1004F0006846FFF7F9FE0FB000BD0000E5FFFFFF03
:100500000A6802F8010B0A607047754600F02CF883
:10051000AE4605006946534620F00700854618B0F0
:1005200020B5FFF7BBFEBDE820404FF000064FF0BE
:1005300000074FF000084FF0000B21F00701AC4618
:10054000ACE8C009ACE8C009ACE8C009ACE8C00937
:100550008D46704710B50446AFF300802046BDE8D5
:100560001040FFF787BE0000004870479C00002045
:1005700001491820ABBEFEE72600020070470000CC
:10058000F8B50446002000902068816811F0010F42
:1005900041D18168214A11422ED18168D543294039
:1005A000491C81601E48806800F0E07000020DD593
:1005B0001C481D490068B0FBF1F0401C00EB4000F6
:1005C000800000E0401E00900028FBD100F046FDB6
:1005D00006461BE0816811F0010F03D181682940B4
:1005E000491C816000F03AFD801B02280ED920686A
:1005F0000068C043C00709D0E06D40F01000E0651E
:10060000206E40F0010020660120F8BD20680168DE
:10061000C943C907DED10020F8BD00003F000080BB
:10062000000300500C000020400D0300FEE770475F
:10063000002240F6B83306E00021491C89B29942F5
:10064000FBD3521C92B28242F6D3704772B6FEE7D9
:100650002DE9F84F00270446009790F85800DFF87E
:10066000E0930D46B846012811D0012684F8586061
:10067000206801F079FC60B1E06D40F02000E06599
:100680005FF0010784F858803846BDE8F88F0220F3
:10069000FBE7D5E900210C23206803EA91131844F5
:1006A000036B01F01F014FF01F0C0CFA01FCC2F3A9
:1006B000846223EA0C038A4013430363206801F039
:1006C00053FC8246206801F04BFC5AEA00003CD102
:1006D000AA6829682068B2F1004F37D001F048FCC1
:1006E0002068416921F00041416120686969C26860
:1006F000C2F3C102520091402A69042A31D000EBB2
:1007000082002B68026EDFF83CC303F0F84302EA74
:100710000C020B431A4342F00041016620682A692B
:10072000A96900EB8200026E22F080720A43026621
:10073000297F22682869012910D0002102EB80005E
:10074000026E22F000720A4302667DE0002201F090
:100750000FFC2068416941F00041C5E74FF000718E
:10076000ECE7002101F0F6FB400320684FF00001A8
:1007700072D001F0EFFB90FAA0F0B0FA80F1286897
:1007800042036ED090FAA0F0B0FA80F0814204D11A
:1007900000221146206801F0FAFB0121206801F0D7
:1007A000D9FB400320684FF001015DD001F0D2FB7E
:1007B00090FAA0F0B0FA80F12868420359D090FA7C
:1007C000A0F0B0FA80F0814204D10022012120681B
:1007D00001F0DDFB0221206801F0BCFB4003206832
:1007E0004FF0020148D001F0B5FB90FAA0F0B0FA4A
:1007F00080F12868420344D090FAA0F0B0FA80F06B
:10080000814204D100220221206801F0C0FB0321B3
:10081000206801F09FFB400320684FF0030133D0B4
:1008200001F098FB90FAA0F0B0FA80F1286842033A
:100830002FD090FAA0F0B0FA80F0814204D10022CB
:100840000321206801F0A3FB2068816811F0010FEB
:1008500022D0ACE000E004E001F07CFBC0F3846156
:100860008DE7C0F3846091E701F074FBC0F384610D
:10087000A2E7C0F38460A6E701F06CFBC0F38461DB
:10088000B7E7C0F38460BBE701F064FBC0F38461A9
:10089000CCE7C0F38460D0E72A7B296850F8B03FEA
:1008A000C1F3120C23EA0C0302F0180C664A22FA78
:1008B0000CF20A4013430360E968494577D1286880
:1008C00041031CD090FAA0F1B1FA81F1491C01F06A
:1008D0001F0109294FEA403132D8002912D000BF48
:1008E00090FAA0F1B1FA81F101F1010101F01F01CB
:1008F00006FA01F609D100BFC0F3846109E0C0F334
:100900008461E3E7C0F38461EEE790FAA0F1B1FA05
:1009100081F101F1010101F01F0146EA816102D17B
:10092000C0F3846003E090FAA0F0B0FA80F000F128
:10093000010000F01F0000EB400041EA005132E0EE
:1009400000290ED090FAA0F1B1FA81F101F1010174
:1009500001F01F0106FA01F606D100BFC0F3846161
:1009600006E0C0F38461F1E790FAA0F1B1FA81F1F9
:1009700001F1010101F01F0146EA816102D1C0F3DA
:10098000846003E090FAA0F0B0FA80F000F101007A
:1009900000F01F002D4A00EB400002EB005041EA3E
:1009A000000141F00071AA68206801F0E1FA2848CE
:1009B0002A6802423FF466AE26488168264B01F061
:1009C000E0719A4202D0254B9A421CD10B021AD4F4
:1009D0002268B2F1A04F7FF455AE826841F4000165
:1009E00022F0E0720A4382601D481E490068B0FB95
:1009F000F1F0401C00EB4000800000E0401E009041
:100A00000028FBD13EE6184D184BAA4207D1CD0174
:100A100005D422689A42F5D041F0807109E0144D66
:100A2000AA42EFD14A02EDD422689A42EAD041F4B8
:100A30008001826822F0E0720A43826022E60000B0
:100A400000007F4000F0FF03FFFF0700000020FED2
:100A50000000088000030050000021C31000C09077
:100A60000C000020400D0300000052C700010050A0
:100A7000000084CB0068006C70470000F8B54FF0B0
:100A8000000504002E46009502D0E06D10B107E08D
:100A90000120F8BD204600F0EBF8266684F8586087
:100AA00020688168C1F3407119B18168684A1140BA
:100AB000816020688168C1F3007189B98168654AE5
:100AC000114041F080518160634864490068B0FB87
:100AD000F1F04000801C00E0401E00900028FBD197
:100AE00020688168C1F3007141B9E16D41F01001E6
:100AF000E165216E41F001012166012501F034FA22
:100B0000E16DC90600D430B1E06D40F01000E06541
:100B100001252846F8BDE06D20F4807040F0020009
:100B2000E0652068806810F0010F11D14FF0A040FF
:100B300080684B4900F00100896801F00101084319
:100B400006D148486168826822F47C120A438260B8
:100B5000E168E06B627F0843A16841EA42310843E3
:100B600094F8241040EA0140012904D1218D3E4A25
:100B700002EB41410843E16A29B101F47871226B2B
:100B8000014342EA01002268D168384B1940014311
:100B9000D16020680169626B21F0406111430161FD
:100BA000206801F0DDF970BB207F94F838108003D5
:100BB00040EA41022168C86844F2020398431043A6
:100BC000C86020690028206801690AD041F480319A
:100BD0000161206850F8C01F22696FF30D011143B5
:100BE00007E021F480310161206850F8C01F6FF3E5
:100BF0000D01016094F8400001280CD020680169C3
:100C000021F001010161606901282068016B21F078
:100C10000F0111D013E0D4E911010843D4E91312F4
:100C20001143084321680A6940F2FC739A43104358
:100C300040F001000861E6E7226A521E1143016399
:100C4000E06D20F0020040F00100E06561E7000087
:100C5000C0FFFF5FC0FFFF7F0C000020400D0300BE
:100C600000010050000300500000FEFF0740F0FFAD
:100C700010B598B00446142111A8FFF7A5FB442134
:100C80006846FFF7A1FB15492068884223D1C401BB
:100C9000400500940F90684600F0D0FA08B1FFF7C5
:100CA000D5FC0F48C16C41F40051C164C16C01F422
:100CB00000511691C16C41F00201C164C06C11A9D0
:100CC00000F0020016900320CDE91140002013909F
:100CD000044800F095F818B010BD00000001005065
:100CE00000100240000400482DE9F0410446384855
:100CF000806800F01F05206801F036F918B1022164
:100D00000846BDE8F08194F8580001280CD0012075
:100D100084F858002046FFF733FC01004FF0000331
:100D200004D084F85830EBE70220EAE7E06D40F6A3
:100D30000162904340F48070E065264A20684FF0DD
:100D4000A046904201D1374600E00746874200D0D6
:100D50001DB9E76D27F48017E765E76DFF0404D53B
:100D6000276E27F00607276600E023661C2707602A
:100D700084F858302068904201D1334600E00346A1
:100D8000834215D0A5B1052D12D0092D10D0E36DE9
:100D900043F48013E365904200D13046C06880017F
:100DA000AED5E06D20F4005040F48050E065A7E738
:100DB000C268920105D5E26D22F4005242F48052DD
:100DC000E2658268044B1A40121D826098E70000B9
:100DD0000003005000010050C0FFFF7F70B50446C3
:100DE00000F03CF90546601C02D004484068044409
:100DF00000F034F9401BA042FAD370BD000000207F
:100E00002DE9F04FDFF82092002301260324A9F1F9
:100E1000040B85B00F2709F1040AABF1040EFAE0C8
:100E200006FA03F52A407CD091F804C00CF0030CBC
:100E3000BCF1010F02D0BCF1020F26D1D0F808C0DE
:100E4000CDF800C04FEA430C04FA0CF8CDF810C0FE
:100E5000DDF800C02CEA080CCDF800C0D1F80C80F9
:100E6000DDF810C008FA0CF8DDF800C048EA0C08FC
:100E7000C0F80880D0F804C02CEA050C0D79C5F341
:100E800000159D4045EA0C0545600D79ED43AD0721
:100E90000ED0C5684FEA430804FA08FC25EA0C05A1
:100EA000D1F808C00CFA08FC4CEA050CC0F80CC0DC
:100EB0000D7905F00305022D16D1DD0800EB850C38
:100EC000CDF808C0DCF820805D074FEAD56C07FA42
:100ED0000CF528EA05080D6905FA0CF5DDF808C0DF
:100EE00045EA0805CCF8205005684FEA430CCDF8D8
:100EF00008C004FA0CFC25EA0C0591F804C00CF0BB
:100F00000308DDF808C008FA0CF848EA0508C0F83C
:100F100000804D6815F4403F7CD0444DD5F860C04A
:100F200000E077E04CF0010CC5F860C02D6E23F0B6
:100F3000030C05F0010500953D4D65440295AD6833
:100F40004FEA837C4FEA1C7807FA08FC25EA0C0577
:100F5000B0F1904F06D0DFF8DCC0604505D14FF00E
:100F6000010C20E04FF0000C1DE0DFF8CCC0604524
:100F700002D14FF0020C16E0DFF8C0C0604502D18C
:100F80004FF0030C0FE0DFF8B8C0604502D14FF01E
:100F9000040C08E0DFF8ACC0604502D14FF0050C4E
:100FA00001E04FF0060C0CFA08FC4CEA050C029D1F
:100FB000C5F808C0D9F80050CC46D1F80480954354
:100FC0005FEAC82800D51543CCF80050DAF8005085
:100FD000D446D1F8048095435FEA882800D51543AC
:100FE000CCF80050DBF80050DC46D1F80480954383
:100FF0005FEA883800D51543CCF80050DEF8005081
:10100000F446D1F8048095435FEAC83800D515430B
:10101000CCF800505B1C0A6832FA03F57FF400AF8D
:1010200005B0BDE8F08F0000080401400010024048
:10103000000001400004004800080048000C00487F
:1010400000100048001400480069084000D001204A
:1010500070470AB1816170478162704701488068BA
:101060007047000000000020024881684268114477
:10107000816070470000002010B50024032000F0BC
:1010800065F80F2000F008F808B1012401E000F035
:1010900025F8204610BD000070B50E4E0546002410
:1010A000706898B14FF47A71B1FBF0F00A490968A1
:1010B000B1FBF0F000F02EFD40B9102D06D2002259
:1010C0002946501E00F022F8356000E00124204639
:1010D00070BD0000000000200C0000200A4882B013
:1010E000016E41F001010166016E01F00101009104
:1010F000816D41F080518165806D00F080500090DD
:1011000002B000F093B8000000100240F0B40E4BA3
:101110001B680C46C3F30223C3F10705042D00D955
:101120000425191D072901D2002300E0DB1E01263A
:1011300006FA05F1491E214099409E40761E164050
:101140003143F0BC01F0AFB90CED00E0064900F00E
:10115000070208684FF6FF03184040EA0220034ADE
:1011600010430860704700000CED00E00000FA0535
:101170002B492C4B0A6832214A432B4940B1B0F528
:10118000007F086829D020F4C06040F480602CE023
:101190000868C0F34120022804D051F8800F20F4E1
:1011A000807022E0D1F8800020F48070C1F88000C7
:1011B000086820F4C06040F400700860B2FBF3F0EF
:1011C000401C00E0401E4A69520501D50028F9D1B3
:1011D000486940050AD503207047C0F34120022822
:1011E00006D051F8800F40F48070086000207047EE
:1011F000D1F8800040F48070C1F88000086820F4C5
:10120000C06040F400700860B2FBF3F0401C00E0E6
:10121000401E4A695205DBD50028F9D1D8E7000005
:101220000C00002040420F0000700040024881681E
:1012300041F4804181607047007000402DE9F8431F
:101240000446006800269D4D00035ED5A86D00276A
:10125000C00008D4A86D40F08050A865A86D012793
:1012600000F080500090DFF85892D9F8001041F457
:101270008071C9F80010FFF7F1FE804606E000BF5C
:10128000FFF7ECFEA0EB080002282BD8D9F80000ED
:10129000C005F5D5D5F8900010F4407014D0216C3D
:1012A000814211D0D5F89000D5F8901020F440700C
:1012B00041F48031C5F89010D5F8901021F48031B8
:1012C000C5F89010C5F89000C00711D0FFF7C6FE12
:1012D000804641F2883907E0FFF7C0FEA0EB080125
:1012E000494501D903260BE0D5F890008007F3D5D6
:1012F000D5F89000216C20F440700843C5F89000A8
:101300001FB1A86D20F08050A8652078C00707D0D5
:10131000D5F88800616820F003000843C5F888000C
:101320002078800707D5D5F88800A16820F00C0048
:101330000843C5F888002078400707D5D5F888000D
:10134000E16820F030000843C5F8880020780007E5
:1013500007D5D5F88800216920F0C0000843C5F8FA
:1013600088002078800607D5D5F88800616920F4C8
:1013700040600843C5F888002078400607D5D5F8B6
:101380008800A16920F440500843C5F888002078FF
:10139000000607D5D5F88800E16920F440400843ED
:1013A000C5F888002088C00507D5D5F88800216ACF
:1013B00020F440300843C5F888002088800507D510
:1013C000D5F88800616A20F440200843C5F88800F9
:1013D000208840050FD5D5F88800A16A20F4401078
:1013E0000843C5F88800A06AB0F5801F03D1E868FB
:1013F00040F48010E860208800050FD5D5F88800FB
:10140000E16A20F440000843C5F88800E06AB0F5BE
:10141000800F03D1E86840F48010E8602088C004A1
:101420000FD5D5F88800216B20F040700843C5F82F
:101430008800206BB0F1807F03D1E86840F4801011
:10144000E86020884FF0006180040ED5D5F8880050
:10145000626B20F040601043C5F88800606B8842E2
:1014600003D1E86840F48010E860208840040ED57D
:10147000D5F88800A26B20F040601043C5F88800C2
:10148000A06B884203D1E86840F48010E8602088AF
:1014900000040FD5D5F88800E16B20F040500843D8
:1014A000C5F88800E06BB0F1805F03D1E86840F4D4
:1014B0008030E8603046BDE8F8830000001002404C
:1014C000007000402DE9F0470E4605004FF0000780
:1014D00025D0DFF8AC81D8F8000000F00F00B04252
:1014E0000CD2D8F8001021F00F013143C8F80010D9
:1014F000D8F8000000F00F00B04210D12968614C0C
:10150000C80741F2883A5AD06868DFF87C9103280E
:1015100008D0022820682DD0400500282CDB0120AF
:10152000BDE8F08720688001F9D5E06800F003028B
:10153000E068C0F30310401C032A19D0534A00BFCF
:10154000B2FBF0F0E268C2F306225043E268C2F355
:101550004162521C5200B0FBF2F0484517D9A06816
:1015600010F0F00F0CD0880711D5A86840B10EE03C
:10157000474AE5E78003D0E700F092F8484506D9EE
:10158000A06820F0F00040F08000A0608027A068F4
:10159000696820F003000843A060FFF75FFD814603
:1015A00006E000BFFFF75AFDA0EB090151453AD80C
:1015B000A068696800F00C00B0EB810FF2D12868D8
:1015C000810714D5400703D5A06840F4E060A0600F
:1015D0002878000705D5A06820F4605040F4E0604A
:1015E000A060A068A96820F0F000084304E0802F04
:1015F00003D1A06820F0F000A060D8F800104046A9
:1016000001F00F01B14216D9016821F00F013143F9
:101610000160FFF723FD074607E000BFFFF71EFD4F
:10162000C11B514501D903207AE7D8F8000000F02A
:101630000F00B042F2D12878400705D5A068E968CC
:1016400020F4E0600843A0602878000706D5A06871
:10165000296920F4605040EAC100A06000F020F841
:10166000A1680C4AC1F30311515C01F01F01C8408D
:101670000949086009480068BDE8F047FFF70CBD5C
:10168000002002400010024000B4C4040024F40012
:1016900000366E01D22500080C000020000000205A
:1016A000184910B58868C0F381021748012A0BD089
:1016B0008A68164BC2F38102022A06D08A68C2F3F6
:1016C0008102032A03D0002010BD184610BDCA684D
:1016D00002F00304CA68C2F30312521C032C02D0A6
:1016E000B0FBF2F001E0B3FBF2F0CA68C968C2F3E4
:1016F00006225043C1F34161491C4900B0FBF1F09F
:1017000010BD0000001002400024F40000366E01FD
:101710002DE9F84304007AD02078F84DC00747D06F
:10172000A868E96800F00C0001F003010C2802D061
:10173000082817D001E0032914D06068B0F5803F75
:1017400017D0B0F5A02F286817D020F4803028607B
:10175000286820F4802028606068E0B1FFF77EFCF4
:10176000064614E02868800322D560680028D2D09D
:101770001EE0286840F48030EDE740F480202860C7
:10178000F7E700BFFFF76AFC801B642870D8286861
:101790008003F7D50CE0FFF761FC064605E000BFCB
:1017A000FFF75CFC801B6428F0D828688003F7D41E
:1017B000207880074CD5A868E96800F00C0001F09B
:1017C00003010C2802D004280DD001E002290AD020
:1017D000E068002828682BD040F480702860FFF76C
:1017E0003DFC064619E02868400502D5E06800285F
:1017F00091D06868217C20F0FE4040EA016068607A
:10180000BF480068FFF748FC002800D120E072E1E3
:10181000FFF724FC801B0228B8D828684005F7D5BC
:101820006868217C20F0FE4040EA016068600FE0BB
:1018300020F480702860FFF711FC064605E000BF29
:10184000FFF70CFC801B0228A0D828684005F7D4BD
:101850002078000729D560690028D5F8940013D0B6
:1018600040F00100C5F89400FFF7F8FB064606E0DB
:1018700090E000BFFFF7F2FB801B022886D8D5F866
:1018800094008007F6D510E020F00100C5F8940020
:10189000FFF7E4FB064604E0FFF7E0FB801B0228AD
:1018A00078D8D5F894008007F6D42078400761D521
:1018B000A86D0026C00008D4A86D40F08050A8652F
:1018C000A86D012600F0805000908E480168C9057F
:1018D00011D40168804641F480710160FFF7BEFBBE
:1018E000074604E0FFF7BAFBC01B022852D8D8F81D
:1018F0000000C005F6D5A068012815D00528D5F848
:10190000900016D020F00100C5F89000D5F89000A6
:1019100020F00400C5F89000A06841F28838B8B102
:10192000FFF79CFB07460EE0D5F8900040F0010061
:10193000F0E740F00400C5F89000F5E7FFF78EFBF4
:10194000C11B414526D8D5F890008007F6D50CE09C
:10195000FFF784FB074604E0FFF780FBC11B41450E
:1019600018D8D5F890008007F6D41EB1A86D20F0E5
:101970008050A8652078800629D5A0690028D5F870
:10198000980013D040F00100C5F89800FFF766FBFF
:10199000064606E075E000BFFFF760FB801B0228EB
:1019A0006FD8D5F898008007F6D510E020F0010038
:1019B000C5F89800FFF752FB064604E0FFF74EFB20
:1019C000801B02285DD8D5F898008007F6D4E0691E
:1019D000F0B3A968C1F3810103295DD0022828680A
:1019E00020F08070286003D0FFF738FB04464BE0FE
:1019F000FFF734FB064604E0FFF730FB801B0228AC
:101A00003FD828688001F7D4F4E908016FF00F028D
:101A100002EB01110843218A5204490802EB4151AB
:101A2000A26841EA02210843217D4FF07E42490825
:101A300002EB41610843217B40EAC160E968324A18
:101A400011400843E860286840F08070286000E09A
:101A50005EE0E86840F08070E860FFF7FFFA044657
:101A600005E000BFFFF7FAFA001B022809D8286832
:101A70008001F7D54CE000BFFFF7F0FA001B022809
:101A800002D90320BDE8F88328688001F4D4E8680F
:101A90001E490840E8603BE00128F3D0E868226A6C
:101AA00000F00301914226D1616A00F0F0020901C1
:101AB000103991421FD1A26A00F4FE41B1EB022F0E
:101AC00019D194F82C2000F07841B1EBC26F12D1FB
:101AD000218E00F4C00249084905A1F50011914288
:101AE00009D194F8341000F0C06049084906A1F10A
:101AF000007181420CD00120C4E7000000100240B8
:101B000000000020007000400C809F01FCFFEEFEF2
:101B10000020B7E710B5401EB0F1807F01D301204F
:101B200010BD4FF0E02460610F21601700F0BBFC96
:101B30000020A06107202061002010BDFEE700000A
:101B400000B585B014216846FEF73EFCC020009029
:101B50000120019002900220039069460248FFF79D
:101B60004FF905B000BD00000004004800B585B085
:101B700014216846FEF728FC4FF6FF700090002005
:101B80000321CDE90201019069460248FFF738F9C7
:101B900005B000BD0008004800B585B014216846B6
:101BA000FEF712FC4FF6FF70009001200190032019
:101BB00003900020029069460248FFF721F905B022
:101BC00000BD0000000800482DE9F0410A4E8046A3
:101BD0003068002485B22146204600F017F900F055
:101BE00055F94FF49637404600F024F9641CBC4286
:101BF000F9D33560BDE8F0811408004870B586B0AF
:101C000014216846FEF7E0FB1E48C16C41F0040158
:101C1000C164C16C01F004010591C16C41F0010186
:101C2000C164C16C01F001010591C16C41F0020178
:101C3000C164C06C032500F0020005904FF44870A9
:101C40000124002603958DE8510069460E48FFF7F0
:101C5000D7F8200203958DE851004FF09044694673
:101C60002046FFF7CDF8FFF797FFA06940F480709A
:101C7000A06105481830016841F40871016006B0A0
:101C800070BD00000010024000040048203AD2B2AB
:101C9000034B02EB420203EB021200F023B80000F8
:101CA000E22500082DE9F043DFF8348081460E4636
:101CB000D8F80000002587B240F23F1407E0214623
:101CC0004846FFF7E3FF103C6D1CA4B2761C327847
:101CD0000AB1142DF3D3C8F80070BDE8F0830000FA
:101CE000140800482DE9F04791468A46002604462C
:101CF00000F08CF8DFF84080012700BF00F0C6F844
:101D00005FF0000539F8160007FA05F10842404671
:101D100001D1408800E0008800F08CF86D1C102D87
:101D2000F0D3641CE4B25146204600F06FF8761CF4
:101D3000182EE3D3BDE8F0871400002070B50D4ED7
:101D4000306885B2FFF75AFF002000F017F80A4C00
:101D5000A080A088A0F50241303907D000F062FAD7
:101D6000002000F00BF8A080356070BD00F0D1F9C4
:101D7000F6E70000140800481400002070B51D4963
:101D80000A6842F400720A600A6842F480720A60CB
:101D9000184C103C226842F020022260164A106063
:101DA000086840F02000086000BF00BF00BF206846
:101DB00040F020002060206840F480702060FFF731
:101DC000D5FE4FF09041886A40F48070886200BF71
:101DD00000BF00BF0848001F006885B2886940F452
:101DE00080708861FFF7D8FE206840F400702060A2
:101DF000284670BD280400481408004801B5BDF805
:101E000000000149488008BD1400002010B50C46B0
:101E10000146202000F068F82146BDE8104021204E
:101E200000F062B801B5BDF800000149088008BDA6
:101E300014000020134A116841F400711160114927
:101E400010390B6843F480730B600B6843F0200378
:101E50000B600D4B1860106840F02000106000BF50
:101E600000BF00BF086840F020000860086840F428
:101E70008070086000BF00BF00BF086840F40070B9
:101E8000086070472804004814080048144908688E
:101E900040F400700860086840F4807008601048E2
:101EA0001038026842F0200202600E4B22221A60B3
:101EB0000A6842F020020A6000BF00BF00BF01684C
:101EC00041F020010160016841F48071016000BFB0
:101ED00000BF00BF016841F400710160704700005D
:101EE0002804004814080048184B10B51A6842F43A
:101EF00000721A601A6842F480721A60134A103A2B
:101F0000146844F020041460114C2060186840F0FC
:101F10002000186000BF00BF00BF106840F0200024
:101F20001060106840F4807010602160186840F004
:101F30002000186000BF00BF00BF106840F0200004
:101F40001060106840F48070106010BD28040048D4
:101F50001408004800EB8100006E00F0F840704764
:101F60008068C0F3C00070478068C0F3800070478D
:101F7000042303EAD15310B518444369C1F3045153
:101F800007248C40A3438A401343436110BD00EBF8
:101F90008100016E21F0004111430166704700008D
:101FA00030B589B020216846FEF70EFA1948184965
:101FB000002401604902C0E90114C46004250461E1
:101FC000C0E90545047744770121016280F8244087
:101FD000C462046380F83840C46380F84040FEF770
:101FE0004DFD08B1FEF732FB0B4800900620CDE90D
:101FF00001047F200594CDE9030569460548FEF7F5
:1020000027FB002801D0FEF721FB09B030BD0000FE
:10201000000100501C0000200080F03EF0B587B0A9
:1020200014216846FEF7D0F93448C16C41F0040130
:10203000C164C16C01F004010591C16C41F0200143
:10204000C164C16C01F020010591C16C41F0010136
:10205000C164C16C01F001010591C16C41F0020144
:10206000C164C16C01F002010591C16C41F008012D
:10207000C164C06C224E00F008004FF47F4405900C
:10208000012221463046FEF7E4FF1E4F01220421C3
:102090003846FEF7DEFF0125CDE900450024029415
:1020A000694630460394FEF7ABFECDE900544FF08D
:1020B0009046694630460294FEF7A2FE80200090CA
:1020C0000220CDE901040620CDE9034069463046EF
:1020D000FEF796FE0720CDE9000469460A480294FF
:1020E000FEF78EFE04200090CDE901546946384683
:1020F0000394FEF785FE07B0F0BD0000001002401B
:1021000000080048000C004800040048FEE7FEE715
:10211000704730B501210020FFF7E6FE4FF47A70DA
:10212000FEF786FA00210120FFF7DEFE41F29071F2
:102130001020FFF7D9FE4FF41C516020FFF7D4FEAA
:1021400001216120FFF7D0FE02214620FFF7CCFEDF
:1021500048F210011320FFF7C7FE48F2FE011220DB
:10216000FFF7C2FE4FF4A0610220FFF7BDFE41F26F
:1021700030010320FFF7B8FE40F20334214630203F
:10218000FFF7B2FE21463120FFF7AEFE2146322096
:10219000FFF7AAFEE51E29463320FFF7A5FE03211F
:1021A0003420FFF7A1FE21463520FFF79DFE1421C4
:1021B0003620FFF799FE21463720FFF795FE21468E
:1021C0003820FFF791FE21463920FFF78DFE294682
:1021D0003A20FFF789FE03213B20FFF785FE2146C9
:1021E0003C20FFF781FE4FF4A0513D20FFF77CFE1D
:1021F0004FF400719220FFF777FE21469320FFF7FE
:1022000073FE40F60D019020FFF76EFE41F21801BB
:102210000320FFF769FEBDE8304040F2731107204C
:10222000FFF762BE10B543F20801E320FFF75CFE42
:102230001221E720FFF758FE41F23121EF20FFF78E
:1022400053FE00210120FFF74FFE4FF4E061022012
:10225000FFF74AFE41F230010320FFF745FE00215F
:102260000420FFF741FE40F207210820FFF73CFE63
:1022700000210920FFF738FE00210A20FFF734FE75
:1022800000210C20FFF730FE00210D20FFF72CFE6F
:1022900000210F20FFF728FE00211020FFF724FE69
:1022A00007211120FFF720FE00211220FFF71CFE5E
:1022B00000211320FFF718FEC820FEF78FFD41F222
:1022C00090611020FFF710FE40F227211120FFF748
:1022D0000BFE3220FEF782FD1D211220FFF704FEC7
:1022E0003220FEF77BFD4FF400611320FFF7FCFD69
:1022F00014212920FFF7F8FD0B212B20FFF7F4FD17
:102300003220FEF76BFD00212020FFF7EDFD0021BC
:102310002120FFF7E9FD07213020FFF7E5FD40F21E
:1023200007713120FFF7E0FD06213220FFF7DCFDC9
:1023300040F204713520FFF7D7FD41F604713620D5
:10234000FFF7D2FD04213720FFF7CEFD0021382012
:10235000FFF7CAFD40F206713920FFF7C5FD40F2D4
:1023600001713C20FFF7C0FD0F213D20FFF7BCFDB0
:1023700000215020FFF7B8FDEF215120FFF7B4FDF9
:1023800000215220FFF7B0FD40F23F115320FFF72C
:10239000ABFD4FF41C516020FFF7A6FD0121612029
:1023A000FFF7A2FD00216A20FFF79EFD002180209B
:1023B000FFF79AFD00218120FFF796FD0021822082
:1023C000FFF792FD00218320FFF78EFD002184207E
:1023D000FFF78AFD00218520FFF786FD1021902060
:1023E000FFF782FD00219220FFF77EFD032193205D
:1023F000FFF77AFD4FF488719520FFF775FD0021F6
:102400009720FFF771FD00219820FFF76DFD41F245
:1024100018010320FFF768FDBDE8104040F273117A
:102420000720FFF761BD7047FEF71EBE10B594B0E0
:1024300038216846FDF7C8FF14210EA8FDF7C4FF38
:102440004FF40070FEF794FE01200090000401900C
:1024500002200324CDE907041421CDE90A100C90D1
:102460000D9009946846FFF753F908B172B6FEE77C
:102470000F20CDE90E04002010901190129002213F
:102480000EA8FFF71FF8002801D072B6FEE714B0BF
:1024900010BD00000248016841F4700101607047FE
:1024A00088ED00E0FEE70907090E002804DB00F1D3
:1024B000E02080F80014704700F00F0000F1E020E9
:1024C00080F8141D7047000010B501210A48FEF77E
:1024D000BBFD0A4C207048B96078012806D1A0786D
:1024E00038B10021A170032000F028F82078607036
:1024F00010BD0121F6E70000000400481000002094
:1025000010B50848FEF7F0FB0648FEF7B3FA02469E
:1025100005A10948FDF7D4FEBDE81040064900209A
:10252000FFF7C0BB1C0000202020207465737425B9
:1025300064202020000000008800002070B50E4EAE
:102540000D460446012204213046FEF782FD4FF479
:102550008070641EA040094B81B20DB1002200E0E2
:1025600001221846FEF775FD3046BDE87040002296
:102570000421FEF76EBD0000000C00480008004872
:10258000FEF77AFDFFF752FFFFF748FDFFF708FD62
:10259000002204210B48FEF75CFDFFF7D1FAFFF79C
:1025A000CDFB0020FFF710FB0020FFF727FC4FF6C4
:1025B000FF70FFF737FC00BFFFF7A2FFFFF784FFB4
:1025C000FAE70000000C00484FF04070E1EE100AFE
:1025D000704700000000000000000102030406072D
:1025E00008090000000000000000000000000000DA
:1025F00000000000000000000000000000000000DB
:1026000000000000000000000000000000000000CA
:1026100000000000800180018001800180018001B4
:102620008001800180018001800180018001000023
:102630000000800180010000000000000000000098
:10264000000000000000CC00CC00CC00CC00CC008E
:10265000CC000000000000000000000000000000AE
:10266000000000000000000000000000000000006A
:102670000000000000000000000000000000600CEE
:10268000600C600C30063006FE1FFE1F3006380757
:102690001803FE1FFE1F180318038C018C018C0108
:1026A000000000008000E003F80F9C0E8C1C8C18CA
:1026B0008C009800F801E007800E801C8C188C18A4
:1026C0009C18B80CF00FE0038000800000000000B0
:1026D00000000000000000000E181B0C110C110679
:1026E0001106110311039B018E01C038C06C6044B8
:1026F0006044304430441844186C0C38000000002A
:1027000000000000E001F003380718061806300347
:10271000F001F000F8009C310E33061E061C061C6A
:10272000063FFC73F02100000000000000000000E4
:102730000000000000000C000C000C000C000C005D
:102740000C0000000000000000000000000000007D
:102750000000000000000000000000000000000079
:1027600000000000000200038001C000C000600003
:1027700060003000300030003000300030003000A9
:10278000300060006000C000C00080010003000253
:102790000000000020006000C000800180010003F4
:1027A00000030006000600060006000600060006FC
:1027B00000060003000380018001C00060002000CB
:1027C0000000000000000000000000000000C00049
:1027D000C000D806F807E001300338070000000009
:1027E00000000000000000000000000000000000E9
:1027F0000000000000000000000000000000800158
:102800008001800180018001FC3FFC3F800180014C
:102810008001800180010000000000000000000035
:1028200000000000000000000000000000000000A8
:102830000000000000000000000000000000000098
:102840000000000080018001000100018000000004
:102850000000000000000000000000000000000078
:1028600000000000000000000000E007E00700009A
:102870000000000000000000000000000000000058
:102880000000000000000000000000000000000048
:102890000000000000000000000000000000000038
:1028A00000000000C000C0000000000000000000A8
:1028B00000000000000C000C0006000600060003EB
:1028C000000300038003800180018001C000C0007C
:1028D000C000600060000000000000000000000078
:1028E00000000000E003F007380E180C0C180C185C
:1028F0000C180C180C180C180C180C180C18180CB8
:10290000380EF007E00300000000000000000000A7
:102910000000000000018001C001F0019801880161
:10292000800180018001800180018001800180019F
:102930008001800180010000000000000000000014
:1029400000000000E003F80F180C0C180C18001819
:102950000018000C000600038001C0006000300079
:102960001800FC1FFC1F0000000000000000000019
:1029700000000000E001F807180E0C0C0C0C000C15
:102980000006C003C007000C001800180C180C1833
:10299000180CF807E0030000000000000000000031
:1029A00000000000000C000E000F000F800DC00C96
:1029B000600C600C300C180C0C0CFC3FFC3F000C45
:1029C000000C000C000C00000000000000000000E3
:1029D00000000000F80FF80F180018000C00EC03BE
:1029E000FC071C0E001C0018001800180C181C0C0A
:1029F000180EF807E00300000000000000000000CF
:102A000000000000C007F00F381C181818000C0058
:102A1000CC03EC0F3C0E1C1C0C180C180C18181CCA
:102A2000380EF007E0030000000000000000000086
:102A300000000000FC1FFC1F000C00060006000345
:102A400080038001C001C000E000600060007000F1
:102A500030003000300000000000000000000000E6
:102A600000000000E003F007380E180C180C180CDA
:102A70003806F007F007180C0C180C180C180C1876
:102A8000380CF80FE0030000000000000000000018
:102A900000000000E003F007380E1C0C0C180C18A6
:102AA0000C181C1C381EF81BE0190018000C000C38
:102AB0001C0EF807F00100000000000000000000FC
:102AC0000000000000000000000000000000800185
:102AD0008001000000000000000000000000000075
:102AE00000008001800100000000000000000000E4
:102AF0000000000000000000000000000000800155
:102B00008001000000000000000000000000000044
:102B10000000800180010001000180000000000031
:102B200000000000000000000000000000000000A5
:102B300000000010001C800FE003F8001800F800EF
:102B4000E003800F001C00100000000000000000E7
:102B50000000000000000000000000000000000075
:102B60000000F81F000000000000F81F0000000037
:102B70000000000000000000000000000000000055
:102B80000000000000000000000000000000000045
:102B9000000008003800F001C007001F0018001FE7
:102BA000C007F0013800080000000000000000002D
:102BB00000000000E003F80F180C0C180C180018A7
:102BC000000C000600038001C000C000C00000002F
:102BD0000000C000C0000000000000000000000075
:102BE000000000000000E00718180420C229224A53
:102BF000114409440944094409221113E20C02401A
:102C000004201818E0070000000000000000000089
:102C10000000000080038003C006C006C006600CF0
:102C2000600C301830183018F83FF83F1C700C60FA
:102C30000C6006C006C0000000000000000000009C
:102C400000000000FC03FC0F0C0C0C180C180C18F6
:102C50000C0CFC07FC0F0C180C300C300C300C303A
:102C60000C18FC1FFC070000000000000000000022
:102C700000000000C007F01F38381C300C700660E0
:102C800006000600060006000600060006600C703E
:102C90001C30F01FE00700000000000000000000F2
:102CA00000000000FE03FE0F060E06180618063090
:102CB0000630063006300630063006300618061894
:102CC000060EFE0FFE0300000000000000000000E2
:102CD00000000000FC3FFC3F0C000C000C000C004E
:102CE0000C00FC1FFC1F0C000C000C000C000C0066
:102CF0000C00FC3FFC3F0000000000000000000052
:102D000000000000F83FF83F1800180018001800F5
:102D10001800F81FF81F18001800180018001800F5
:102D2000180018001800000000000000000000005B
:102D300000000000E00FF83F3C780E6006E007C09E
:102D40000300030003FE03FE03C007C006C00EC05D
:102D50003CF0F83FE00F0000000000000000000021
:102D6000000000000C300C300C300C300C300C30FB
:102D70000C30FC3FFC3F0C300C300C300C300C3075
:102D80000C300C300C30000000000000000000008F
:102D9000000000008001800180018001800180012D
:102DA000800180018001800180018001800180011B
:102DB0008001800180010000000000000000000090
:102DC00000000000000600060006000600060006DF
:102DD0000006000600060006000600061806180693
:102DE0003807F003E00100000000000000000000D0
:102DF0000000000006300618060C060606038601D1
:102E0000C60066007600DE008E0106030606060C8C
:102E100006180630066000000000000000000000F8
:102E20000000000018001800180018001800180012
:102E300018001800180018001800180018001800D2
:102E40001800F81FF81F000000000000000000003C
:102E5000000000000EE01EF01EF01EF036D836D83E
:102E600036D836D866CC66CC66CCC6C6C6C6C6C60C
:102E7000C6C686C386C30000000000000000000034
:102E8000000000000C301C303C303C306C306C30AA
:102E9000CC30CC308C310C330C330C360C360C3C33
:102EA0000C3C0C380C30000000000000000000005A
:102EB00000000000E007F81F1C380E70066003C019
:102EC00003C003C003C003C003C003C006600E708C
:102ED0001C38F81FE00700000000000000000000A0
:102EE00000000000FC0FFC1F0C380C300C300C30C4
:102EF0000C300C18FC1FFC070C000C000C000C0024
:102F00000C000C000C00000000000000000000009D
:102F100000000000E007F81F1C380E70066003E098
:102F200003C003C003C003C003C007E006630E3F35
:102F30001C3CF83FE0F700C000000000000000006B
:102F400000000000FE0FFE1F063806300630063077
:102F50000638FE1FFE0706030606060C06180618AE
:102F6000063006300660000000000000000000008F
:102F700000000000E003F80F1C0C0C180C180C00EB
:102F80001C00F803E00F001E0038063006300E303B
:102F90001C1CF80FE007000000000000000000000B
:102FA00000000000FE7FFE7F800180018001800123
:102FB0008001800180018001800180018001800109
:102FC000800180018001000000000000000000007E
:102FD000000000000C300C300C300C300C300C3089
:102FE0000C300C300C300C300C300C300C300C3001
:102FF0001818F81FE00700000000000000000000A3
:103000000000000003600630063006300C180C1873
:103010000C18180C180C380E3006300670076003B8
:103020006003C001C00100000000000000000000BB
:10303000000000000360C361C361C361663366338F
:1030400066336633663366336C1B6C1B6C1B2C1A41
:103050003C1E380E380E000000000000000000008A
:10306000000000000FE00C7018303018700C600E7B
:10307000C00780038003C003E006700C301C1818E2
:103080000C300E6007E000000000000000000000AF
:103090000000000003C006600C301C383818300CEB
:1030A0006006E007C003800180018001800180018B
:1030B000800180018001000000000000000000008D
:1030C00000000000FC7FFC7F006000300018000C56
:1030D000000600038001C0006000300018000C00F2
:1030E0000600FE7FFE7F00000000000000000000E0
:1030F00000000000E003E00360006000600060008A
:1031000060006000600060006000600060006000BF
:10311000600060006000600060006000E003E003A9
:103120000000000030003000600060006000C0005F
:10313000C000C000C00180018001800100030003C5
:103140000003000600060000000000000000000070
:1031500000000000E003E00300030003000300039D
:103160000003000300030003000300030003000347
:10317000000300030003000300030003E003E00377
:10318000000000000000C001C00160036003600394
:1031900030063006180C180C00000000000000007B
:1031A000000000000000000000000000000000001F
:1031B000000000000000000000000000000000000F
:1031C00000000000000000000000000000000000FF
:1031D00000000000FFFFFFFF0000000000000000F3
:1031E000000000000C000C000C000C000C000C0097
:1031F00000000000000000000000000000000000CF
:1032000000000000000000000000000000000000BE
:103210000000000000000000000000000000F003BB
:10322000F8071C0C0C0C000FF00FF80C0C0C0C0C1D
:103230001C0FF80FF0180000000000000000000054
:103240000000000018001800180018001800D8032B
:10325000F80F380C18181818181818181818181803
:10326000380CF80FD8030000000000000000000038
:103270000000000000000000000000000000C0038B
:10328000F007300E180C1800180018001800180C61
:10329000300EF007C0030000000000000000000036
:1032A0000000000000180018001800180018C01BCB
:1032B000F01F301C18181818181818181818181893
:1032C000301CF01FC01B00000000000000000000C8
:1032D0000000000000000000000000000000C0032B
:1032E000F00F300C1818F81FF81F180018003818C5
:1032F000301CF00FC00700000000000000000000BC
:1033000000000000800FC00FC000C000C000F00728
:10331000F007C000C000C000C000C000C000C00076
:10332000C000C000C000000000000000000000005D
:103330000000000000000000000000000000E00DA0
:10334000F80F180E0C0C0C0C0C0C0C0C0C0C0C0CC0
:10335000180EF80FE00D000C0C0C1C06F807F0011D
:103360000000000018001800180018001800D80706
:10337000F80F381C181818181818181818181818D2
:1033800018181818181800000000000000000000AD
:1033900000000000C000C000000000000000C000ED
:1033A000C000C000C000C000C000C000C000C0001D
:1033B000C000C000C00000000000000000000000CD
:1033C00000000000C000C000000000000000C000BD
:1033D000C000C000C000C000C000C000C000C000ED
:1033E000C000C000C000C000C000C000F8007800ED
:1033F000000000000C000C000C000C000C000C0C79
:103400000C060C038C01CC006C00FC009C018C03AE
:103410000C030C060C0C0000000000000000000073
:1034200000000000C000C000C000C000C000C0001C
:10343000C000C000C000C000C000C000C000C0008C
:10344000C000C000C000000000000000000000003C
:1034500000000000000000000000000000007C3CB4
:10346000FF7EC7E383C183C183C183C183C183C19D
:1034700083C183C183C10000000000000000000080
:10348000000000000000000000000000000098079D
:10349000F80F381C181818181818181818181818B1
:1034A000181818181818000000000000000000008C
:1034B0000000000000000000000000000000C00349
:1034C000F00F300C181818181818181818181818A1
:1034D000300CF00FC00300000000000000000000EE
:1034E0000000000000000000000000000000D80301
:1034F000F80F380C18181818181818181818181861
:10350000380CF80FD803180018001800180018001D
:103510000000000000000000000000000000C01BD0
:10352000F01F301C18181818181818181818181820
:10353000301CF01FC01B00180018001800180018DD
:103540000000000000000000000000000000B007C4
:10355000F0037000300030003000300030003000E8
:1035600030003000300000000000000000000000CB
:103570000000000000000000000000000000E00368
:10358000F003380E180C3800F003C007000C180CBC
:10359000380EF007E003000000000000000000000B
:1035A0000000000000008000C000C000C000F00764
:1035B000F007C000C000C000C000C000C000C000D4
:1035C000C000C007800700000000000000000000ED
:1035D00000000000000000000000000000001818BB
:1035E000181818181818181818181818181818185B
:1035F000381CF01FE019000000000000000000006F
:1036000000000000000000000000000000000C1896
:10361000180C180C180C30063006300660036003D6
:103620006003C001C00100000000000000000000B5
:103630000000000000000000000000000000C14188
:10364000C141C361636363636363363636363636BE
:103650001C1C1C1C1C1C00000000000000000000C2
:1036600000000000000000000000000000001C3806
:10367000381C300C60066003600360036003600662
:10368000300C381C1C380000000000000000000056
:1036900000000000000000000000000000001830E2
:1036A000301830187018600C600CE00CC006C006B2
:1036B00080038003800380018001C001F00070005E
:1036C0000000000000000000000000000000FC1FDF
:1036D000FC1F000C000600038001C00060003000E9
:1036E0001800FC1FFC1F000000000000000000008C
:1036F0000000000000038001C000C000C000C00046
:10370000C000C00060006000300060004000C000E9
:10371000C000C000C000C000C00080010003000065
:103720000000000080018001800180018001800193
:103730008001800180018001800180018001800181
:103740008001800180018001800180018001800171
:10375000000000006000C000C00180018001800105
:1037600080018001000300030006000300018001C6
:1037700080018001800180018001C00060000000A4
:103780000000000000000000000000000000000039
:103790000000F010F81F080F0000000000000000FB
:1037A0000000000000000000000000000000000019
:1037B00000000000D4370008000000201C000000BA
:1037C00014020008F03700081C000020E406000086
:1037D000300200081000000001000000000000009E
:1037E0000024F400000000000000FFFF00000000C3
:04000005080001D915
:00000001FF
